:100000000C9456000C946D000C946D000C946D00D3
:100010000C946D000C946D000C946D000C946D00AC
:100020000C946D000C946D000C946D000C946D009C
:100030000C946D000C946D000C946D000C946D008C
:100040000C946D000C946D000C946D000C946D007C
:100050000C946D000C946D000C946D000C946D006C
:100060000C946D000C946D000C946D000C946D005C
:100070000C946D000C946D000C946D000C946D004C
:100080000C946D000C946D000C946D00AE0090000B
:1000900092009400960098009A009C009E00A00098
:1000A000A200A400A600A800AA00AC0011241FBE54
:1000B000CFEFD0E4DEBFCDBF11E0A0E0B1E0E8E7D4
:1000C000F1E000E00BBF02C007900D92AE30B10727
:1000D000D9F70E9480000C94BA000C940000CF93D2
:1000E000C82F8A3019F48DE00E946F009091C000F3
:1000F00095FFFCCFC093C60080E090E0CF910895BB
:1001000011B88FEF82B987B918B880B18095E82F00
:10011000EF708E2F90E0FC01EA5BFF4F0C94B10072
:1001200080E61DC080E61BC080E719C080E717C0CD
:1001300088E315C088E313C08CE311C08CE30FC0C3
:100140008CE30DC08EE30BC08EE309C08EE307C0C5
:100150008FE305C08FE303C08FE301C080E488B95B
:10016000D4CFEE0FFF1F0024001C0BBE0790F691AA
:08017000E02D0994F894FFCF83
:0E01780000000002000000006F000000000008
:00000001FF
