:100000000C944D000C946C000C946C000C946C00DF
:100010000C946C000C946C000C946C000C946C00B0
:100020000C946C000C946C000C946C000C946C00A0
:100030000C946C000C946C000C946C000C946C0090
:100040000C946C000C946C000C946C000C946C0080
:100050000C946C000C946C000C946C000C946C0070
:100060000C946C000C946C000C946C000C946C0060
:100070000C946C000C946C000C946C000C946C0050
:100080000C946C000C946C000C946C008B008E0033
:100090009500A000A700B000BE0011241FBECFEF46
:1000A000D0E4DEBFCDBF11E0A0E0B1E0E4E1F2E0DA
:1000B00000E00BBF02C007900D92AE30B107D9F738
:1000C00011E0AEE0B1E001C01D92AF30B107E1F741
:1000D0000E94F5000C9408010C940000CF93C82FE7
:1000E0008A3019F48DE00E946E009091C00095FF57
:1000F000FCCFC093C60080E090E0CF91089520B17E
:10010000217030B1327087309105A8F5FC01EA5BAF
:10011000FF4F0C94FF0081E090E041C0222311F0DA
:1001200082E090E031112DC03AC0211102C083E07D
:1001300090E0222311F084E090E0311125C02FC01F
:10014000222311F082E090E0311121C028C041E06B
:10015000211140E021E0311120E02423D9F41FC017
:10016000311102C083E090E0332311F084E090E08D
:10017000211113C014C080E090E011C084E090E031
:100180000EC085E090E00BC086E090E008C085E0FE
:1001900090E005C083E090E002C086E090E082300D
:1001A000910579F024F48130910541F01CC085302F
:1001B000910579F086309105A1F015C010920E01DD
:1001C00012C020910E01293070F42F5F20930E0190
:1001D0000AC020910E01222331F0215020930E01FC
:1001E00002C010920E0188B9089511B88FEF82B93C
:1001F00087B918B880E090E00E947F00FDCFEE0F35
:10020000FF1F0024001C0BBE0790F691E02D0994FF
:04021000F894FFCF90
:0E02140000000002000000006E00000000006C
:00000001FF
