:100000000C9446000C9465000C9465000C946500FB
:100010000C9465000C9465000C9465000C946500CC
:100020000C9465000C9465000C9465000C946500BC
:100030000C9465000C9465000C9465000C946500AC
:100040000C9465000C9465000C9465000C9465009C
:100050000C9465000C9465000C9465000C9465008C
:100060000C9465000C9465000C9465000C9465007C
:100070000C9465000C9465000C9465000C9465006C
:100080000C9465000C9465000C94650011241FBE4F
:10009000CFEFD0E4DEBFCDBF11E0A0E0B1E0E6EDF0
:1000A000F1E000E00BBF02C007900D92AE30B10747
:1000B000D9F711E0AEE0B1E001C01D92AF30B10759
:1000C000E1F70E94DF000C94E9000C940000CF934C
:1000D000C82F8A3019F48DE00E9467009091C0000B
:1000E00095FFFCCFC093C60080E090E0CF910895CB
:1000F00020B12095217030B1309532708230910559
:10010000C9F034F4009761F08130910561F022C0AC
:1001100084309105B9F08CF085309105B1F01AC0AA
:1001200081E090E02EC0222311F082E090E03111B6
:1001300014C027C0211114C024C02223A1F0311102
:1001400015C01FC0311115C01CC03323A9F02111E7
:1001500016C017C080E090E014C084E090E011C0A9
:1001600083E090E00EC081E090E00BC080E090E082
:1001700008C085E090E005C081E090E002C080E02A
:1001800090E08230910541F08430910569F000974C
:1001900091F410920E010FC020910E01293058F4F5
:1001A0002F5F20930E0107C020910E01222319F02A
:1001B000215020930E0120910E0128B9089511B805
:1001C0008FEF82B987B918B880E090E00E9478007C
:0601D000FDCFF894FFCF03
:0E01D6000000000200000000670000000000B2
:00000001FF
