:100000000C944E000C946D000C946D000C946D00DB
:100010000C946D000C946D000C946D000C946D00AC
:100020000C946D000C946D000C946D000C946D009C
:100030000C946D000C946D000C946D000C946D008C
:100040000C946D000C946D000C946D000C946D007C
:100050000C946D000C946D000C946D000C946D006C
:100060000C946D000C946D000C946D000C946D005C
:100070000C946D000C946D000C946D000C946D004C
:100080000C946D000C946D000C946D00A8008B0016
:100090009200950098009B00A200A50011241FBEAD
:1000A000CFEFD0E4DEBFCDBF11E0A0E0B1E0E4E2ED
:1000B000F2E000E00BBF02C007900D92AE30B10736
:1000C000D9F711E0AEE0B1E001C01D92A031B10757
:1000D000E1F70E94FD000C9410010C940000CF93F6
:1000E000C82F8A3019F48DE00E946F009091C000F3
:1000F00095FFFCCFC093C60080E090E0CF910895BB
:1001000020B12095217088309105E0F5FC01EA5B73
:10011000FF4F0C94070121111EC020910F012630C2
:1001200089F51CC021111DC02DC02223E9F02AC071
:1001300085E090E027C021111AC020910F012223F1
:10014000C9F020C0211119C01DC02223C9F01AC056
:1001500081E090E017C082E090E014C084E090E07D
:1001600011C083E090E00EC081E090E00BC086E01B
:1001700090E008C080E090E005C087E090E002C019
:1001800085E090E08230910581F01CF4009741F009
:1001900030C084309105D1F086309105D1F029C06E
:1001A00010920F0110920E0124C040910F0122E025
:1001B00030E0042E02C0220F331F0A94E2F72150D0
:1001C00020930E014F5F40930F0113C010920E0158
:1001D00010C020910F01215020930F0142E050E008
:1001E00002C0440F551F2A95E2F720E4241B2093F8
:1001F0000E0120910E0128B9089511B88FEF82B930
:1002000087B918B880E090E00E948000FDCFEE0F23
:10021000FF1F0024001C0BBE0790F691E02D0994EF
:04022000F894FFCF80
:0E02240000000002000000006F00000000005B
:00000001FF
